:020000040800F2
:1000000000280020911D0008D91D0008D91D0008F6
:10001000D91D0008D91D0008D91D000800000000E6
:10002000000000000000000000000000D91D0008D2
:10003000D91D000800000000D91D00086313000846
:10004000D91D0008D91D0008D91D0008D91D0008B8
:10005000D91D0008D91D00085114000857140008C4
:100060005D1400086314000869140008D91D000815
:10007000D91D0008D91D0008D91D0008D91D000888
:10008000D91D0008D91D0008D91D0008D91D000878
:10009000D91D0008D91D0008D91D00086F140008DB
:1000A000D91D000889110008D91D00089D110008FC
:1000B000A1110008B511000800000000D91D0008BA
:1000C000D91D00080000000000000000D91D000834
:1000D00000000000691C0008811C000800000000EE
:1000E00097140008D91D0008D91D00080000000061
:1000F0000000000000000000000000000000000000
:0C01000000000000000000005FF808F1A3
:10010C0010B5054C237833B9044B13B10448AFF345
:10011C0000800123237010BD780000200000000037
:10012C002426000808B5034B1BB103490348AFF361
:10013C00008008BD000000007C0000202426000880
:10014C0008B50121112001F043FEBDE80840012152
:10015C00112001F09BBE08B50021112001F096FE84
:10016C004FF4FA7001F0CEFE1120012101F08EFE49
:10017C00BDE808404FF4FA7001F0C4BE70470000AF
:10018C0038B50E4B05461A784FF47A73B3FBF2F37D
:10019C000B4A1068B0FBF3F000F09CF8044658B919
:1001AC000F2D09D8024629464FF0FF3000F042F8D7
:1001BC002046044B1D6038BD0120FCE700000020E8
:1001CC002000002004000020074A08B51368032013
:1001DC0043F01003136000F01BF80020FFF7D0FF72
:1001EC00FFF7CCFF002008BD00200240034A044B5F
:1001FC0011681B780B441360704700BF94000020FB
:10020C0000000020014B1868704700BF94000020CC
:10021C0007490302CA6803F4E06322F4E0621204A3
:10022C00120C134343F0BF6343F40033CB607047AD
:10023C0000ED00E0154B30B5DC68C4F30224C4F1CA
:10024C000703251D042B28BF0423062D4FF0FF3573
:10025C0094BF0024033C05FA03F321EA0303A540F1
:10026C0022EA0502A340002843EA0203ACBF00F1D6
:10027C006040074A4FEA0313DBB2ABBF00F56140A5
:10028C0000F00F0080F80033135430BD00ED00E097
:10029C0014ED00E0002807DB01234109034A00F0BC
:1002AC001F00834042F82130704700BF00E100E09E
:1002BC0000280CDB01220649430900F01F00824094
:1002CC00203341F82320BFF34F8FBFF36F8F70475C
:1002DC0000E100E00138B0F1807F0BD24FF0E02359
:1002EC00F021054A586182F82310002007229861FA
:1002FC001A6170470120704700ED00E0002808DB10
:10030C0001224309034900F01F008240603341F889
:10031C002320704700E100E0704708B5FFF7FCFFB1
:10032C0008BD704710B5044650B1437903F0FF0285
:10033C0013B90271FFF7F5FF01230020637110BDA3
:10034C000120FCE790F821200346022A06D0042263
:10035C0082630120002283F8202070470268C06B62
:10036C00116821F00E011160116821F0010111607A
:10037C0001211A6C01FA02F24260002083F821106C
:10038C00E8E7000008B590F82130022B03D00423D5
:10039C008363012008BD03681A6822F00E021A60FC
:1003AC001A6822F001021A60174A93421FD01432C5
:1003BC0093421ED0143293421DD0143293421DD05E
:1003CC00143293421DD01432934214BF4FF08073F9
:1003DC004FF480130D4A5360012380F82130002321
:1003EC0080F82030436B03B198470020D2E70123FB
:1003FC00F0E71023EEE74FF48073EBE74FF48053F4
:10040C00E8E74FF48033E5E70800024000000240C3
:10041C00044A08B55169014202D0506100F0FCFF5A
:10042C0008BD00BF000401402DE9F341054638B377
:10043C000368DB0710D42B689F075ED42B68190761
:10044C0000F195802B685A0700F1C180EB69002BF5
:10045C0040F02C81002029E0904C636803F00C03E1
:10046C00042B07D0636803F00C03082B0AD16368D4
:10047C00DE0307D523689C03DDD56B68002BDAD12E
:10048C00012013E06B68B3F5803F12D1236843F46D
:10049C0080332360FFF7B6FE064623689803CAD460
:1004AC00FFF7B0FE801B6428F7D9032002B0BDE82B
:1004BC00F0819BB9236823F480332360236823F4F1
:1004CC0080232360FFF79EFE064623689903B2D56E
:1004DC00FFF798FE801B6428F7D9E6E7B3F5A02F49
:1004EC00236803D143F480232360CFE723F48033C4
:1004FC002360236823F48023CBE7684C636813F0F4
:10050C000C0F07D0636803F00C03082B10D1636841
:10051C00DA030DD423689B0702D52B69012BAFD1CD
:10052C0023686A6923F0F80343EAC203236085E772
:10053C002A695B4B6AB101221A60FFF763FE06461B
:10054C0023689F07ECD4FFF75DFE801B0228F7D9C8
:10055C00ABE71A60FFF756FE0646236898077FF54F
:10056C006DAFFFF74FFE801B0228F6D99DE7AA69F5
:10057C004A4E4B4BE2B10122C3F88024FFF742FEF6
:10058C000446736A9B070DD54FF4FA52454B1B6812
:10059C00B3FBF2F3019300BF019B5A1E0192002B97
:1005AC00F9D14FE7FFF72EFE001B0228E9D97CE7B3
:1005BC00C3F88024FFF726FE0446736A9F077FF575
:1005CC0041AFFFF71FFE001B0228F6D96DE7334C35
:1005DC00E369D80024D40127E36943F08053E36135
:1005EC00E36903F080530093009B2F4E3368D905C9
:1005FC0018D5EB68012B26D1236A43F00103236243
:10060C00FFF700FE41F288380646236A9B073FD568
:10061C00002F3FF41BAFE36923F08053E36115E730
:10062C000027E2E7336843F480733360FFF7EAFD99
:10063C0080463368DA05DCD4FFF7E4FDA0EB080054
:10064C006428F6D931E7ABB9236A41F2883823F034
:10065C0001032362236A23F004032362FFF7D2FD14
:10066C000646236A9807D3D5FFF7CCFD801B40457F
:10067C00F7D91AE7052B236A03D143F0040323624D
:10068C00BAE723F001032362236A23F00403B6E7DD
:10069C00FFF7B8FD801B4045B7D906E700100240B4
:1006AC000000424220000020007000402A4C62688A
:1006BC0002F00C02082A3ED00022022B274B1A66AD
:1006CC002CD1FFF79FFD06462368990120D42B6A95
:1006DC00B3F5803F05D16268A96822F400320A4361
:1006EC006260696A62680B4322F47412134301223C
:1006FC0063601A4B1A66FFF785FD054623689A015D
:10070C003FF5A8AEFFF77EFD401B0228F6D9CCE6DC
:10071C00FFF778FD801B0228D6D9C6E6FFF772FDDD
:10072C00054623689B017FF595AEFFF76BFD401BDB
:10073C000228F6D9B9E6012B3FF4A2AE60682B6A09
:10074C0000F480329A427FF49BAE6B6A00F4701016
:10075C00C01A18BF0120A9E6001002400000424256
:10076C000D4A536803F00C01082912D10B48C3F34E
:10077C008341DB03405C09D55368094AC3F340430A
:10078C005043084AD35CB0FBF3F07047064B584318
:10079C0070470348704700BF001002403E26000817
:1007AC0000127A003C26000800093D002DE9F041BA
:1007BC000D46044610B90120BDE8F081444A136887
:1007CC0003F007038B4228D321688E0730D4CA0765
:1007DC0043D43F4A136803F00703AB4265D8226841
:1007EC003C4D12F0040F6CD1130706D56B682269CF
:1007FC0023F4605343EAC2036B60FFF7B1FF6B68ED
:10080C00354AC3F30313D35CD840344B1860344BD4
:10081C001868FFF7B5FC0020CEE7136823F0070338
:10082C000B431360136803F007038B42C3D1CBE770
:10083C00284B11F0040F1EBF5A6842F4E0625A6054
:10084C00080742BF5A6842F460525A605A68A0685E
:10085C0022F0F00202435A60B9E762681D4E012A89
:10086C0033681AD113F4003FA5D0736841F288386D
:10087C0023F0030313437360FFF7C4FC074673684C
:10088C00626803F00C03B3EB820FA2D0FFF7BAFC43
:10089C00C01B4045F3D903208EE7022A02D113F086
:1008AC00007FE1E713F0020FDEE7136823F0070384
:1008BC002B431360136803F00703AB427FF47BAF49
:1008CC008DE76B68E16823F4E0630B436B608BE7A7
:1008DC00002002400010024090260008200000205A
:1008EC000400002003682DE9F3410546D80720D504
:1008FC00364CE369D9002AD40126E36943F08053CE
:10090C00E361E36903F080530193019B304F3B6833
:10091C00DA051ED5236A13F440732ED1236A6A6854
:10092C0023F44073134323621EB1E36923F0805315
:10093C00E3612A68910706D52449A8684B6823F41B
:10094C00404303434B60D30637D4002012E000260B
:10095C00DCE73B6843F480733B60FFF753FC804655
:10096C003B68DB05D6D4FFF74DFCA0EB08006428F0
:10097C00F6D9032002B0BDE8F0816A6802F4407237
:10098C009A42CBD00120134A236AC2F840040020BB
:10099C0023F44071DF07C2F840042162BED5FFF793
:1009AC0031FC41F288380746236A9807B6D4FFF722
:1009BC0029FCC01B4045F7D9DBE7044AE9685368BA
:1009CC0023F480030B435360BFE700BF00100240C9
:1009DC00007000400000424270477047036870B5D9
:1009EC00DD681E690446B1070DD5AA070BD56FF05B
:1009FC0002021A61012202779B699B0769D000F001
:100A0C0030FC00232377710710D56A070ED56FF0E1
:100A1C000402236820461A61022222779B6913F490
:100A2C00407F5CD000F01DFC0023237733070FD5EB
:100A3C0028070DD56FF00802236820461A6104229E
:100A4C002277DB69990750D000F00BFC0023237749
:100A5C00F20610D5EB060ED56FF010022368204677
:100A6C001A6108222277DB6913F4407F43D000F02F
:100A7C00F8FB00232377F00708D5E90706D56FF0BC
:100A8C000102236820461A6100F0C8FB320608D523
:100A9C002B0606D56FF08002236820461A6100F001
:100AAC008CF8700608D5690606D56FF040022368ED
:100ABC0020461A61FFF791FFB20622D5AB0620D56E
:100ACC006FF0200223682046BDE870401A6100F0E8
:100ADC0073B800F0C4FB2046FFF77EFF91E700F0EF
:100AEC00BEFB2046FFF778FF9EE700F0B8FB2046E0
:100AFC00FFF772FFAAE700F0B2FB2046FFF76CFF8E
:100B0C00B7E770BD154A0368904206D0B0F1804F2C
:100B1C0003D0A2F59432904207D14A6823F07003B7
:100B2C001343CA6823F4407313434A6923F08003C8
:100B3C00134303608B68C3620B688362074B984254
:100B4C0004BF0B690363012343610369DB0742BFE5
:100B5C00036923F001030361704700BF002C0140BF
:100B6C0010B5044630B390F83D3003F0FF021BB9CA
:100B7C0080F83C2000F0A6FF0223206884F83D306A
:100B8C00211DFFF7BFFF0123002084F8463084F8B5
:100B9C003E3084F83F3084F8403084F8413084F89B
:100BAC00423084F8433084F8443084F8453084F87B
:100BBC003D3010BD0120FCE770477047026802F120
:100BCC000C0353E8003F23F490730C3242E80031DD
:100BDC0002680029F2D102F1140353E8003F23F01C
:100BEC00010302F1140C4CE800310029F3D1036B22
:100BFC00012B0BD102F10C0353E8003F23F010033F
:100C0C0002F10C0C4CE800310029F3D1202380F8C0
:100C1C00423000230363704790F84130202B10D1F1
:100C2C0089B182B1C28482840023212201620168CD
:100C3C00436480F84120CA68184642F08002CA60BA
:100C4C007047022070470120704708B50023406AA6
:100C5C00C385C38400F0C4FF08BD704790F84230D0
:100C6C0007B5222B42D181680268B1F5805F836A97
:100C7C003FD1016900293FD15268C2F3080223F821
:100C8C00022B8362C38D013B9BB2C385002B2DD1FC
:100C9C000268D16821F02001D160D16821F4807103
:100CAC00D160516921F001015161202280F842206C
:100CBC004363026B012A026828D1036302F10C031F
:100CCC0053E8003F23F0100302F10C0C4CE8003108
:100CDC000029F3D11368DB0605D501911368019344
:100CEC0053680193019B818DFFF7B7FF03B05DF84B
:100CFC0004FB39B9016929B95268D2B21A70836AF6
:100D0C000133BEE7526802F07F02F7E700F062FFA2
:100D1C00ECE70000036873B51A6804461607D96837
:100D2C005D6908D1960668D58D0666D502B0BDE81A
:100D3C007040FFF793BF05F0010001F49075054377
:100D4C005BD0D60705D5CD0542BF636C43F00103DC
:100D5C006364530704D518B1636C43F002036364F6
:100D6C00960704D518B1636C43F00403636415074C
:100D7C0007D501F0200303431EBF636C43F0080347
:100D8C006364636C002B32D0920604D58B0602D5BB
:100D9C002046FFF763FF266820467369626C03F0F8
:100DAC00400302F0080253EA020522D0FFF706FFC7
:100DBC0073695E0618D5226802F1140353E8003FEC
:100DCC0023F04003143242E800310029F3D1E06BE8
:100DDC0050B1744B4363FFF7D5FA40B1E06B436BF2
:100DEC0002B0BDE870401847204600F0F9FE02B092
:100DFC0070BD00F0F5FE6564F9E7206B012840F04A
:100E0C009480D50640F19180C80640F18E80002276
:100E1C0001921A6801925A680192019A5A69520613
:100E2C004DD5E16B0A68526892B2002ADFD0A08DD2
:100E3C009042DCD9E2858A69202A36D003F10C0273
:100E4C0052E8002F22F4807203F10C0040E80021DC
:100E5C000029F3D103F1140252E8002F22F0010211
:100E6C0003F1140040E800210029F3D103F114022E
:100E7C0052E8002F22F0400203F1140040E8002158
:100E8C000029F3D1202284F84220216303F10C02C3
:100E9C0052E8002F22F0100203F10C0040E8002170
:100EAC000029F3D1E06BFFF74DFA02236363E38D66
:100EBC00A18DC91A89B22046FFF7CFFE97E7E28DC4
:100ECC00E18D92B289B2002991D0A18D891A89B293
:100EDC0000298CD003F10C0252E8002F22F49072FE
:100EEC0003F10C0545E800200028F3D103F11402AE
:100EFC0052E8002F22F0010203F1140545E800200E
:100F0C000028F3D1202284F84220206303F10C0244
:100F1C0052E8002F22F0100203F10C0545E80020E6
:100F2C000028F3D102236363C5E7160628D50D0606
:100F3C0026D594F84120212A7FF459AFA168226A62
:100F4C00B1F5805F17D12169A9B932F8021BC1F341
:100F5C00080159602262E28C013A92B2E284002AC2
:100F6C007FF445AFDA6822F08002DA60DA6842F08A
:100F7C004002DA603BE7511C216212785A60EAE7C2
:100F8C0050067FF534AF4A067FF531AFDA6820465C
:100F9C0022F04002DA60202384F8413000F01DFE7C
:100FAC0025E700BF570C000890F84030012B11D0FA
:100FBC002423026880F84130D36823F00C0343F0FB
:100FCC000803D360202380F84130002380F84030A0
:100FDC00184670470220704790F84030012B11D012
:100FEC002423026880F84130D36823F00C0343F0CB
:100FFC000403D360202380F84130002380F8403074
:10100C00184670470220704790F8412090F8420033
:10101C00104370470023C2854364222382850269F2
:10102C0080F84230816203681AB1DA6842F4807247
:10103C00DA605A69002042F001025A61DA6842F023
:10104C002002DA60704770B590F84260202E07D10C
:10105C0041B13AB100240463FFF7DCFF204670BDB8
:10106C000220FCE70120FAE7836810B504462BB197
:10107C000322014698470023C4E9023310BD83685C
:10108C0010B5044613B1032201469847204610BD03
:10109C00084B984207D0B0F1804F06D0A3F594339B
:1010AC00984204D0FEE700207047012070470220D0
:1010BC00704700BF002C0140024670B5044652F840
:1010CC00100FFFF7E5FF0546104600F0A7FC0023C4
:1010DC00084AE36042F8253004F1600604F1B005DB
:1010EC00B54204D0103D2846FFF7C9FFF8E720466B
:1010FC0070BD00BF98000020F8B504460846FFF705
:10110C00C7FF236903B1FEE71B4D04F10C0245F840
:10111C0020200E2204F110063046C4E90C33C4E939
:10112C000E33C4E91033C4E91623216184F82C3042
:10113C00A36484F84C3084F84D30E46000F03AFC41
:10114C0004F1600504F1B00728461035FFF78CFF59
:10115C00BD42F9D100234FF6FF72C4E90033C4E954
:10116C000632C4E90833A360636180233046A3626E
:10117C00BDE8F840FFF7F4BC98000020034B18685A
:10118C0010B10430FFF72ABC704700BF9800002054
:10119C00FFF7F4BF034B586810B10430FFF71EBCC7
:1011AC00704700BF98000020034B986810B10430C2
:1011BC00FFF714BC704700BF980000200022C0E964
:1011CC000022C0E902227047F8B504460E4600F131
:1011DC00600500F1B00728461035FFF7EFFFBD4260
:1011EC00F9D10023204631462361FFF785FF2046C5
:1011FC00F8BD826810B50AB901F00AFAC368BDE8F7
:10120C001040184708B500B9FEE700F0D1FB0068A4
:10121C00836E13B16030FFF7ECFF08BDFFF7F2BF30
:10122C0010B500B9FEE7037F013B072B10D8DFE8B0
:10123C0003F004140F100F0F0F12012400F0B8FB71
:10124C000068063400EB041083680BB1FFF7D1FF84
:10125C0010BD0324F2E70424F0E70224EEE7FFF7C5
:10126C00DFBFFFF7DDBF01F035B801F03BB8000080
:10127C0084B0032834D8DFE800F0020F1B27194B89
:10128C0019489A6942F004029A619B6903F00403BD
:10129C000093009B04B07047124B14489A6942F0BB
:1012AC0008029A619B6903F008030193019BF1E723
:1012BC000C4B0F489A6942F010029A619B6903F03B
:1012CC0010030293029BE5E7064B0A489A6942F029
:1012DC0020029A619B6903F020030393039BD9E7D7
:1012EC000020D7E70010024000080140000C01402C
:1012FC000010014000140140F8B51349064600F0F7
:10130C001AFBFFF7C5FE114F054657F8203073B98D
:10131C00B020FFF7A8FF0C490446304600F00BFB49
:10132C0001462046FFF750FF57F825301C601C681B
:10133C0044B12046FFF7C0FE2046BDE8F840B0217E
:10134C00FFF793BFF8BD00BF0027000898000020EE
:10135C00FEF758BF704708B5FEF748FFFEF7DDFFF4
:10136C00FFF7F8FF08BD70470F4B84B0DA6942F005
:10137C008052DA61DA6902F080520192019A9A691C
:10138C0042F001029A619A6902F001020292029AF9
:10139C005A6942F040025A615B6903F040030393BF
:1013AC00039B04B0704700BF001002400C4BD3F8F5
:1013BC00FC20D2015EBFD3F8FC2042F08072C3F84F
:1013CC00FC200022074B5A601A6842F001021A6096
:1013DC0000BF00BF00BF5868B0FA80F040097047EA
:1013EC0000ED00E0001000E008B5FFF7BDFFFFF7CF
:1013FC00DDFFFEF7E9FEFFF7B6FF00F073FCBDE87A
:10140C0008400148FEF78EBF180000200023C0E9F9
:10141C000033C0E9023370470023012803F10102B5
:10142C000AD11422DBB25343054A181D10448168BB
:10143C0029B11A441369184713464008EDE7704761
:10144C00A40000200120FEF7E3BF0220FEF7E0BF5E
:10145C000420FEF7DDBF0820FEF7DABF1020FEF7F0
:10146C00D7BF08B52020FEF7D3FF4020FEF7D0FFF2
:10147C008020FEF7CDFF4FF48070FEF7C9FFBDE86A
:10148C0008404FF40070FEF7C3BF38B506244FF484
:10149C008065A8B2FEF7BCFF013C4FEA4505F8D1C8
:1014AC0038BD0000344A08B51046062300F8043B4A
:1014BC00FFF7ACFF072302F118001375FFF7A6FF27
:1014CC00082302F12C0082F82830FFF79FFF092334
:1014DC0002F1400082F83C30FFF798FF0A231721F5
:1014EC0002F1540082F85030FFF790FF02F16800CF
:1014FC0082F86410FFF78AFF02F17C0082F8781002
:10150C00FFF784FF02F1900082F88C10FFF77EFF4A
:10151C0002F1A40082F8A010FFF778FF82F8B41053
:10152C00282102F1B800FFF771FF02F1CC0082F81C
:10153C00C810FFF76BFF02F1E00082F8DC10FFF738
:10154C0065FF02F1F40082F8F010FFF75FFF02F57F
:10155C00847082F80411FFF759FF02F58E7082F83F
:10156C001811FFF753FFBDE8084002F5987082F898
:10157C002C11FFF74BBF00BFA400002038B5054C61
:10158C00A4F5A075143C201DFFF779FDAC42F9D1F0
:10159C0038BD00BFE4010020614B82B09A6901386C
:1015AC0042F001029A619B6903F001030193019BD4
:1015BC0023281AD8DFE800F0121B22292E353A41D5
:1015CC00191919464D565B626B7479808919191972
:1015DC0019198E95191919199A9FA6AD514A536864
:1015EC0043F0E06343F00103536002B070474D4A8F
:1015FC00536823F0010343F0E063F5E7494A53686D
:10160C0043F0E06343F00203EEE7464A536823F0ED
:10161C000203F0E7434A536843F0E06343F00403EA
:10162C00E2E7404A536823F00403E4E73D4A536879
:10163C0043F0E06343F00803D6E73A4A536823F0DB
:10164C000803D8E7374A536843F0E06343F0C0031C
:10165C00CAE7344A536823F0C00343F0E06343F015
:10166C004003C1E72F4A536823F0C003C3E72D4A58
:10167C00536843F0E06343F44073B5E7294A536879
:10168C0023F4407343F0E06343F40073ACE7254A62
:10169C00536823F4407343F0E06343F48073A3E78F
:1016AC00204A536823F44073A5E71E4A536843F05D
:1016BC00E06343F4406397E71A4A536823F44063AA
:1016CC0043F0E06343F400638EE7164A536823F457
:1016DC00406390E7134A536843F0E06343F40043DC
:1016EC0082E7104A536823F4004384E70D4A536899
:1016FC0023F0E06378E70B4A536823F0E06343F090
:10170C00807371E7074A536823F0E06343F000737A
:10171C006AE7044A536823F0E06343F0806363E7AD
:10172C00001002400000014091FAA1F3B3FA83F3D8
:10173C0070B50D0E0F2691FAA1F1B1FA81F1445951
:10174C009B0006FA03F3890024EA03048A4022432F
:10175C00425170BD91FAA1F3B3FA83F370B50D0E3B
:10176C00042691FAA1F1B1FA81F144599B0006FAD1
:10177C0003F3890024EA03048A402243425170BDDA
:10178C00431C04D00C3151F80C3C5A1C01D10020E4
:10179C007047834201F10C01F5D101207047000024
:1017AC00431C2DE9F34106460F4600D1FEE7594B89
:1017BC0000F00F02C0F3031001F0070853F82240A9
:1017CC00FFF756FDB8F1010F054615D194FAA4F3B5
:1017DC00B3FA83F30321200E2A589B0001FA03F37A
:1017EC0022EA030294FAA4F3B3FA83F39B00994020
:1017FC0011432950012213E0C7F30620B8F1030F5F
:10180C000AD801A353F828F027180008011800087B
:10181C008B18000899180008FEE7FFF7BDFE082298
:10182C002146284608F1FF38FFF77EFFB8F1010F7B
:10183C0006D817F0080218BF04222146FFF78AFFCA
:10184C0094FAA4F2230EB2FA82F2E9580F23920012
:10185C00934094FAA4F2B2FA82F2C7F301170B4048
:10186C009200012F23FA02F312D0022F3BD0082B47
:10187C0021D1042221462846FFF756FF1BE07F2882
:10188C0001D10922CCE7FFF787FEFAE70022C7E770
:10189C00042B04D1082221462846FFF745FF230AD2
:1018AC0093FAA3F3B3FA83F20123E968934021EA94
:1018BC0014210B43EB60184B9A6942F001029A61B8
:1018CC009B6903F001030193019BA6F10D03012B0E
:1018DC0014D8124A536823F0E06343F080635360DA
:1018EC0002B0BDE8F081042B04D108222146284621
:1018FC00FFF71AFFEB6823EA1423DBE70F2E02D065
:10190C00133E012EECD8054A536823F0E06343F0F4
:10191C000073E4E75026000800100240000001406C
:10192C000B685A1C01D100207047834201D14868D2
:10193C0070470C31F4E7431C01D0FFF7F1BF0020D6
:10194C0070474B6813B94FF0FF307047834201D199
:10195C00086870470C31F4E708B1FFF7F2BF4FF09D
:10196C00FF3070470F4B1A6842F001021A60596839
:10197C000D4A0A405A601A6822F0847222F48032AE
:10198C001A601A6822F480221A605A6822F4FE0245
:10199C005A604FF41F029A604FF00062034B9A603A
:1019AC00704700BF001002400000FFF800ED00E09F
:1019BC00043870470368164A84B093420BD1154B18
:1019CC009A6942F400629A619B6903F40063019383
:1019DC00019B04B07047B3F1804F0BD103F5043376
:1019EC00DA6942F00102DA61DB6903F00103029368
:1019FC00029BEEE7084A9342EBD1064BDA6942F0C0
:101A0C000202DA61DB6903F002030393039BE0E754
:101A1C00002C0140001002400004004003680E4AF4
:101A2C00934206D102F56442936923F400639361F7
:101A3C007047B3F1804F05D1084AD36923F00103F5
:101A4C00D3617047064A9342FBD102F50332D36946
:101A5C0023F00203F4E700BF002C01400010024009
:101A6C0000040040431C0AD0094B98420AD003F5ED
:101A7C009433984208D0B0F1804F07D0FEE76FF056
:101A8C000D0070471D207047192070471C207047AF
:101A9C0000040040431C0AD0094B98420AD003F5BD
:101AAC009433984208D0B0F1804F07D0FEE76FF026
:101ABC000D0070471D2070471B2070471C2070477D
:101ACC000004004038B50446FFF774FF0068FFF7C8
:101ADC00C9FFD4E91212FEF7ADFB2068FFF7C2FF75
:101AEC00FEF7D8FB22681046FFF7D4FF05461046D8
:101AFC00FFF7B8FF85420BD0D4E912122846FEF747
:101B0C0099FB2068FFF7C6FFBDE83840FEF7C2BB63
:101B1C0038BD000008B5074B90F8652053F822003B
:101B2C00FFF772FA00F02200A0F12203584258414C
:101B3C0008BD00BFE401002008B5074B90F86520F4
:101B4C0053F82200FFF760FA00F02100A0F1210306
:101B5C005842584108BD00BFE401002038B5154675
:101B6C000446B8B1016590F96400FEF7A1FBB4F826
:101B7C007630E16E9BB294F865001944064BAAB21C
:101B8C0053F82000FFF748F894F96400BDE838409A
:101B9C00FEF780BB38BD00BFE401002048B1836D67
:101BAC00013306D190F86520024B53F82200FFF761
:101BBC00FBB97047E401002048B1836D013306D1B5
:101BCC0090F86520024B53F82200FFF705BA7047D6
:101BDC00E4010020836C04381847C36C04381847A0
:101BEC0030B5044650F8043985B01D6815F0010570
:101BFC0012D0002200921A6800925B680093009B3E
:101C0C00FFF788FF40BB0122204604F1620105B0BA
:101C1C00BDE83040FFF717BA196811F0020106D081
:101C2C0001951A6801925B680193019BE8E71A68B9
:101C3C0012F0040206D002911A6802925B680293B9
:101C4C00029BDDE719680907DAD503921A6803923B
:101C5C005B680393039BD3E705B030BD08B5252023
:101C6C00FEF74CFB024B1868BDE80840FFF752B872
:101C7C00E4010020262008B5FEF740FB034B586812
:101C8C0018B1BDE80840FFF745B808BDE4010020D5
:101C9C0003460A4910B508680344EFF308829342DF
:101CAC0005D90C224FF0FF30054B1A6010BD054AC8
:101CBC00054C121B9342F4D20B60F7E72400002072
:101CCC00540400200028002000040000FEE700005F
:101CDC001622024B4FF0FF301A607047540400205C
:101CEC000120704710B594B0142200210CA800F00C
:101CFC00AFFB142200210DEB020000F0A9FB102217
:101D0C00002101A800F0A4FB02244FF4803301222F
:101D1C00CDE91143CDE90A234FF4E0130AA80E9242
:101D2C001393FEF781FB00B1FEE70F23CDE90534D9
:101D3C004FF480630790CDE90830214605A8FEF7E3
:101D4C0035FD00B1FEE7122301934FF40043CDE9BA
:101D5C00033001A8FEF7C6FD00B1FEE714B010BDBC
:101D6C0008B50320FEF754FABDE8084000F0E6B8C9
:101D7C0008B5AFF30080FEF7E3F9FEF7ECF900F0DD
:101D8C00CFF8FAE7FFF7EEFD0B480C490C4A00239D
:101D9C0002E0D458C4500433C4188C42F9D3094A15
:101DAC00094C002301E013600432A242FBD300F083
:101DBC0067FBFFF7DDFF7047000000207800002074
:101DCC00CC290008780000205C040020FEE700000D
:101DDC00C3B2222B2DE9F0410D462AD8274A00F434
:101DEC00E06452F823301C43621C44D0244EC4F3EC
:101DFC00031756F8273004F00F0823FA08F3DB0713
:101E0C0010D520461F49FFF7BBFC10B12046FFF749
:101E1C0073FA012256F8273002FA08F223EA020379
:101E2C0046F82730052D15D8DFE805F015211B1DC8
:101E3C001F2300F0C002C02A1DD1C92B1BD8124B86
:101E4C0000F03F0253F822200C4B00F4E06453F8EE
:101E5C002230C8E7FEE700212046BDE8F041FFF73D
:101E6C009FBC1021F8E72021F6E70321F4E70121BC
:101E7C00F2E70921F0E7BDE8F08100BFFC2800087B
:101E8C00EC01002000270008D4280008C3B2222B44
:101E9C001BD8174A00F4E06052F823301843431C57
:101EAC0025D010F0C00F02BF124BC0F3031253F831
:101EBC002220114B00F00F0053F8203018BF0022E5
:101ECC00C3F30F2391B11361704700F0C002C02A15
:101EDC000DD1C92B0BD8094B00F03F0253F822202F
:101EEC00034B00F4E06053F82230D7E7536170479E
:101EFC00FC2800080800002050260008D428000800
:101F0C00FFF726BA38B5044648B1FFF721FA054663
:101F1C0000F016F8FFF71CFA431BA342F8D338BDA8
:101F2C0008B5044B2BB1044800F00BF808B1AFF323
:101F3C00008008BD00000000FC010020FFF754BA2F
:101F4C007047B0F80831B0F80421981A00F03F003F
:101F5C007047B0F80831B0F804219BB293421ABF15
:101F6C00D0F8FC30985C4FF0FF30704790F8063199
:101F7C00B0F80A01C0B2834227BFC3F13F03C018B7
:101F8C00C01A00F1FF30704707B503688DF80710D1
:101F9C0001225B680DF10701984703B05DF804FB63
:101FAC00B0F87610826F10B50A4402F03F02A0F828
:101FBC007620B0F87610B0F8722089B28A421AD026
:101FCC00B0F876404032A4B2B0F87610121B5442EE
:101FDC0089B204F03F0402F03F02C1F1400158BF46
:101FEC0062428A4228BF0A4604498267FFF7B6FD5F
:101FFC004FF0FF3010BD0020FCE700BFAD1F000804
:10200C002DE9F843036804469B68884616469847B2
:10201C0001232374D4F8EC30B4F8067101338146F3
:10202C00C7F1400709D194F8113133B1002304F101
:10203C00940084F81131FFF7B1FD236820469B68AA
:10204C0098470028F9D03546BD4225D84D4523D8B0
:10205C00B4F80631D4F800015A19402A184430D883
:10206C002A46414600F032FA2F46B4F806311D4498
:10207C0005F03F05A4F8065104F194052846FFF736
:10208C005BFD30B93A4628461549C4F80C71FFF788
:10209C0065FD3046BDE8F8834F4528BF4F462368A1
:1020AC003A4641465B6820469847236820469B6821
:1020BC009847ED1BB844B4F806718146C7F1400748
:1020CC00C2E7C3F140073A46414600F0FFF9D4F8A5
:1020DC000001EA1B08EB070100F0F8F9C5E700BFA7
:1020EC00AD1F0008C0F8F030009B914208BF4FF0C4
:1020FC00FF31C0F8F43000F11403C0F8FC300023B9
:10210C00C0E93A2100F15402A0F80831C0E940239B
:10211C00A0F80A3170470000F7B54FF47A731746F0
:10212C000022C0E901231C4B044603604FF0FF332F
:10213C00C0F8EC30194B1A4E9C420D46F06A05D192
:10214C00B36AC4F8EC30C4F8E8000AE01549FFF7AC
:10215C00F2FB854215D1B36AC4F8EC30F36AC4F8CB
:10216C00E8304FF0FF33012F08BFC4F8EC30009378
:10217C002046D4E93A214FF0FF33FFF7B3FF03B009
:10218C00F0BD28460849FFF7E7FB0649C4F8EC0008
:10219C002846FFF7E1FBD6E790290008FC01002058
:1021AC00FC280008D0260008A0260008037C70B587
:1021BC0004460D46A3B1FEF725F80646B4F80621F1
:1021CC00B4F80A319BB29A420AD0002DF8D0FEF72F
:1021DC0019F8801B8542F1D8B4F80A31A4F80631FD
:1021EC0070BD0021FFF7E2BFD0F8EC3010B5013321
:1021FC0004460ED10368DB68984794F8113143B953
:10220C00012304F1940084F81131BDE81040FFF76C
:10221C00D3BC10BD10B50446FFF7E6FFB4F8082197
:10222C00B4F8043192B29A4217BFD4F8FC204FF0A4
:10223C00FF30D05C01331CBF03F03F03A4F8043122
:10224C0010BD0000002202490248FFF765BF00BF25
:10225C0000380140FC01002010B50446FFF750FE89
:10226C00E060236820465B699847002808DAFFF78E
:10227C0047FEE368C01AA3689842F2D34FF0FF30D0
:10228C0010BDF8B507460D460C468E18B44201D168
:10229C00601BF8BD3846FFF7DFFF431CF8D004F88D
:1022AC00010BF3E72DE9F0410746884616461D461B
:1022BC0073B100243846FFF7CFFF431C05D04045CF
:1022CC0003D030550134A542F4D12046BDE8F0814D
:1022DC001C46FAE7024B0146186800F02DB800BF07
:1022EC0028000020024B0146186800F0FDB800BF22
:1022FC002800002070B50F4E0C463168054611B908
:10230C0000F0AEF830602146284600F0A9F8431CD6
:10231C0003D14FF0FF34204670BDC41C24F00304DD
:10232C00A042F8D0211A284600F09AF80130F2D1D8
:10233C00EFE700BF140300202DE9F843CD1C25F076
:10234C00030508350C2D38BF0C25002D064601DB86
:10235C00A94204D90C2333600020BDE8F883DFF8D0
:10236C00D48000F069F8D8F800301C4644BB2946EC
:10237C003046FFF7BFFF431C044658D1D8F8004045
:10238C002746002F43D1002C4BD0236839463046CA
:10239C0004EB030900F064F8814542D12168304612
:1023AC006D1A2946FFF7A6FF01303AD023682B445B
:1023BC002360D8F800305A6862BBC8F800700FE090
:1023CC002268521B20D40B2A17D96119A34225600D
:1023DC0018BF5960636808BFC8F8001062514B60A1
:1023EC00304600F02FF804F10B00231D20F00700FD
:1023FC00C21A1CBF1B1AA350AFE76268A3420CBFE2
:10240C00C8F800205A60EBE723466468AEE73C4608
:10241C007F68B6E71A465B68A342FBD10023536082
:10242C00DEE70C233046336000F00CF894E70560CF
:10243C00D6E700BF18030020014800F045B800BFE4
:10244C0058040020014800F040B800BF5804002098
:10245C0003460244934200D1704703F8011BF9E78D
:10246C0038B50023054D044608462B60FFF710FCD9
:10247C00431C02D12B6803B1236038BD54040020E7
:10248C0070B500260C4D0D4B5B1B9C10A64209D160
:10249C00002600F0C1F80A4D0A4B5B1B9C10A642AB
:1024AC0005D170BD55F8043B98470136EEE755F859
:1024BC00043B98470136F2E7B4290008B429000818
:1024CC00B4290008C4290008704770470A44914297
:1024DC0000F1FF3300D1704710B511F8014B914258
:1024EC0003F8014FF9D110BD38B50546002940D08D
:1024FC0051F8043C0C1F002BB8BFE418FFF79CFFED
:10250C001C4A136833B9636014602846BDE8384030
:10251C00FFF798BFA34208D9206821188B4201BF4E
:10252C0019685B6809182160EDE71A465B680BB106
:10253C00A342FAD911685018A0420BD1206801446B
:10254C00501883421160E0D118685B680844106031
:10255C005360DAE702D90C232B60D6E720682118E8
:10256C008B4201BF19685B68091821606360546075
:10257C00CBE738BD18030020062008B500F02CF876
:10258C000120FFF7A3FB1F2938B505460C4604D9DB
:10259C00162303604FF0FF3038BDC26B12B152F8F6
:1025AC0021304BB9284600F031F822460146284626
:1025BC00BDE8384000F018B8012B0AD0591C03D1E3
:1025CC00162303600120E7E70021204642F824107F
:1025DC0098470020E0E70000024B01461868FFF71F
:1025EC00D2BF00BF2800002038B50023064D04469A
:1025FC00084611462B60FFF76BFB431C02D12B687E
:10260C0003B1236038BD00BF54040020FFF768BB42
:10261C0008B5FFF7B1FF0000F8B500BFF8BC08BC67
:10262C009E467047F8B500BFF8BC08BC9E46704784
:10263C00010202030405060708090A0B0C0D0E0F14
:10264C001010000001010000020200000404000050
:10265C00080800001010000020200000404000007E
:10266C008080000001000104020002040400040444
:10267C00080008041000100420002004400040044E
:10268C008000800400000000000000000102030430
:10269C000607080903000000004400401008000071
:1026AC000A0000000038014010060000170000006E
:1026BC000038014010050000FFFFFFFF0000000084
:1026CC00000000000200000000440040120800005E
:1026DC00090000000038014012060000160000003E
:1026EC000038014012050000FFFFFFFF0000000052
:1026FC0000000000000000000000004012800000FC
:10270C0000010000000000401290000001000000D9
:10271C000000004012120100010100000000004006
:10272C001210010002000000000000401292010093
:10273C0002010000000000401291010003000000A3
:10274C0000000040121202000301000000000040D3
:10275C001211020006000000000400401295000057
:10276C0007000000002C0140128D10000701000032
:10277C00000400401215010008000000002C01406C
:10278C00128E000008010000002C0140128D000088
:10279C0009000000002C0140120E0100090100008C
:1027AC00002C0140120D01000A000000002C014019
:1027BC00128E01000A010000002C0140128D010054
:1027CC000B000000002C0140120E02000B01000057
:1027DC00002C0140120D02000F0000000000004010
:1027EC00129100000F01000000000040128F000049
:1027FC0010000000002C0140120D1100100100000F
:10280C00000400401295010010020000000400407A
:10281C001294010011000000002C0140128D1100D7
:10282C00110100000004004012150200110200000A
:10283C0000040040121402001300000000000040CD
:10284C00121101001301000000000040120F0100E2
:10285C001400000000040040129400001500000059
:10286C0000040040121401001A0000000000004097
:10287C00129001001A01000000000040128F0100AC
:10288C001B00000000000040121002001B010000A1
:10289C0000000040120F02001D000000002C01403F
:1028AC00128E10001E000000002C0140120E1100B0
:1028BC001F000000002C0140128E1100FFFFFFFFD3
:1028CC0000000000000000001400000015000000D3
:1028DC00160000001700000018000000190000008E
:1028EC001A0000001B0000001C0000001D0000006E
:1028FC00190000001800000017000000160000006E
:10290C001500000014000000130000000F00000070
:10291C000C0000000B0000000A0000000900000081
:10292C00080000001F0000001E0000001D00000039
:10293C001C0000002D0000002E0000002F000000E5
:10294C000000000001000000020000000300000075
:10295C000400000005000000060000000700000055
:10296C0010000000110000001A0000001B00000005
:10297C00120000000D0000000E000000000000001E
:10298C0000000000951F00080D200008791F0008AA
:10299C00EF2100084F1F0008212200085F1F0008CC
:0829AC008F220008B12200088F
:1029B4006D1D000831010008B114000851220008FF
:0829C4000D010008891500084F
:1029CC00010000001000000000080140000C014054
:1029DC0000100140001401400030024000000000D3
:1029EC0000127A00600400202C000020000000007F
:1029FC001C03002084030020EC03002000000000D6
:102A0C0000000000000000000000000000000000BA
:102A1C0000000000000000000000000000000000AA
:102A2C00000000000000000000000000000000009A
:082A3C00000000000000000092
:0400000508001D9141
:00000001FF
